:020000040800F2
:1000000000400020192C0008D9290008DB2900082D
:10001000DD290008DF290008E129000800000000B0
:10002000000000000000000000000000E3290008BC
:10003000E529000800000000E7290008E929000878
:10004000612C0008612C0008612C0008612C00085C
:10005000612C0008612C0008612C0008612C00084C
:10006000F1290008612C0008612C0008612C0008AF
:10007000612C0008612C0008612C0008612C00082C
:10008000612C0008612C0008612C0008612C00081C
:10009000612C0008612C0008612C0008612C00080C
:1000A000612C0008612C0008612C0008612C0008FC
:1000B000612C0008612C0008612C0008612C0008EC
:1000C000612C0008612C0008612C0008612C0008DC
:1000D000612C0008612C0008612C0008612C0008CC
:1000E000612C0008612C0008612C0008612C0008BC
:1000F000612C00080000000000000000000000006B
:1001000000000000000000000000000000000000EF
:1001100000000000000000000000000000000000DF
:1001200000000000000000000000000000000000CF
:0C01300000000000000000005FF808F173
:10013C0010B5054C237833B9044B13B10448AFF315
:10014C0000800123237010BD0C0000200000000073
:10015C00BC2C000808B5034B1BB103490348AFF393
:10016C00008008BD0000000010000020BC2C00081E
:10017C0080F0004002E000BF81F0004142001FBF50
:10018C005FEA410392EA030F7FEA226C7FEA236C59
:10019C006AD04FEA1262D2EB1363C1BFD21841404E
:1001AC0048404140B8BF5B42192B88BF704710F0E4
:1001BC00004F40F4000020F07F4018BF404211F087
:1001CC00004F41F4000121F07F4118BF494292EAEF
:1001DC00030F3FD0A2F1010241FA03FC10EB0C001B
:1001EC00C3F1200301FA03F100F0004302D54942A8
:1001FC0060EB4000B0F5000F13D3B0F1807F06D355
:10020C0040084FEA310102F10102FE2A51D2B1F14C
:10021C00004F40EBC25008BF20F0010040EA030041
:10022C007047490040EB000010F4000FA2F10102EE
:10023C00EDD1B0FA80FCACF1080CB2EB0C0200FA78
:10024C000CF0AABF00EBC25052421843BCBFD040C6
:10025C001843704792F0000F81F4000106BF80F440
:10026C0000000132013BB5E74FEA41037FEA226C03
:10027C0018BF7FEA236C21D092EA030F04D092F0CE
:10028C00000F08BF0846704790EA010F1CBF002002
:10029C00704712F07F4F04D1400028BF40F000405F
:1002AC00704712F100723CBF00F50000704700F07F
:1002BC00004343F0FE4040F4000070477FEA2262A6
:1002CC0016BF08467FEA23630146420206BF5FEA77
:1002DC00412390EA010F40F4800070474FF0000377
:1002EC0004E000BF10F0004348BF40425FEA000C3E
:1002FC0008BF704743F0964301464FF000001CE0E6
:10030C0050EA010208BF70474FF000030AE000BF3B
:10031C0050EA010208BF704711F0004302D5404279
:10032C0061EB41015FEA010C02BF844601460020EB
:10033C0043F0B64308BFA3F18053A3F50003BCFA06
:10034C008CF2083AA3EBC25310DB01FA02FC6344B3
:10035C0000FA02FCC2F12002BCF1004F20FA02F2BA
:10036C0043EB020008BF20F00100704702F12002AD
:10037C0001FA02FCC2F1200250EA4C0021FA02F20E
:10038C0043EB020008BF20EADC7070474FF0FF0C13
:10039C001CEAD0521EBF1CEAD15392EA0C0F93EA0E
:1003AC000C0F6FD01A4480EA010C400218BF5FEAB0
:1003BC0041211ED04FF0006343EA501043EA511123
:1003CC00A0FB01310CF00040B1F5000F3EBF49001D
:1003DC0041EAD3715B0040EA010062F17F02FD2A21
:1003EC001DD8B3F1004F40EBC25008BF20F0010004
:1003FC00704790F0000F0CF0004C08BF49024CEA1B
:10040C00502040EA51207F3AC2BFD2F1FF0340EAAC
:10041C00C250704740F400004FF00003013A5DDC1D
:10042C0012F1190FDCBF00F000407047C2F100025E
:10043C00410021FA02F1C2F1200200FA02FC5FEA4B
:10044C00310040F1000053EA4C0308BF20EADC7095
:10045C00704792F0000F00F0004C02BF400010F407
:10046C00000F013AF9D040EA0C0093F0000F01F0B4
:10047C00004C02BF490011F4000F013BF9D041EAD6
:10048C000C018FE70CEAD15392EA0C0F18BF93EAD8
:10049C000C0F0AD030F0004C18BF31F0004CD8D102
:1004AC0080EA010000F00040704790F0000F17BF89
:1004BC0090F0004F084691F0000F91F0004F14D0CF
:1004CC0092EA0C0F01D142020FD193EA0C0F03D127
:1004DC004B0218BF084608D180EA010000F000402A
:1004EC0040F0FE4040F40000704740F0FE4040F405
:1004FC00400070474FF0FF0C1CEAD0521EBF1CEAA4
:10050C00D15392EA0C0F93EA0C0F69D0A2EB0302C1
:10051C0080EA010C49024FEA402037D04FF080535B
:10052C0043EA111143EA10130CF000408B4238BF20
:10053C005B0042F17D024FF4000C8B4224BF5B1A2E
:10054C0040EA0C00B3EB510F24BFA3EB510340EA7C
:10055C005C00B3EB910F24BFA3EB910340EA9C002A
:10056C00B3EBD10F24BFA3EBD10340EADC001B019A
:10057C0018BF5FEA1C1CE0D1FD2A3FF650AF8B423E
:10058C0040EBC25008BF20F0010070470CF0004C4B
:10059C004CEA50207F32C2BFD2F1FF0340EAC25076
:1005AC00704740F400004FF00003013A37E792F037
:1005BC00000F00F0004C02BF400010F4000F013A95
:1005CC00F9D040EA0C0093F0000F01F0004C02BF90
:1005DC00490011F4000F013BF9D041EA0C0195E7F9
:1005EC000CEAD15392EA0C0F08D142027FF47DAF92
:1005FC0093EA0C0F7FF470AF084676E793EA0C0F82
:10060C0004D14B023FF44CAF08466EE730F0004C7F
:10061C0018BF31F0004CCAD130F000427FF45CAF0F
:10062C0031F000437FF43CAF5FE700BF42000ED2D5
:10063C00B2F1FE4F0BD34FF09E03B3EB126209D411
:10064C004FEA002343F0004323FA02F070474FF0C7
:10065C000000704712F1610F01D1420202D14FF03C
:10066C00FF3070474FF00000704700BF034613F88F
:10067C00012B002AFBD1181A01387047104B1B684C
:10068C000BB90120704710B504464FF47A70B0FBDB
:10069C00F3F30C4A1068B0FBF3F000F09FF868B964
:1006AC000F2C01D901200AE0002221464FF0FF3027
:1006BC0000F052F8024B5C60002000E0012010BDFD
:1006CC00000000200800002010B5032000F032F8D4
:1006DC000020FFF7D3FF10B10124204610BD0446C3
:1006EC0002F052F9F9E70000034A1368034909685C
:1006FC000B441360704700BF28000020000000204E
:10070C00014B1868704700BF2800002038B504461C
:10071C00FFF7F6FF0546B4F1FF3F02D0044B1B6810
:10072C001C44FFF7EDFF401BA042FAD338BD00BFBD
:10073C0000000020074AD36823F4E0631B041B0C61
:10074C00000200F4E060184340F0BF6040F4003059
:10075C00D060704700ED00E030B4174BDB68C3F39A
:10076C000223C3F10704042C28BF04241D1D062DED
:10077C0018D9033B4FF0FF3505FA04F421EA0401C4
:10078C00994005FA03F322EA0303194300280BDB13
:10079C000901C9B200F1604000F5614080F8001316
:1007AC0030BC70470023E5E700F00F000901C9B227
:1007BC00024B1954F4E700BF00ED00E014ED00E02B
:1007CC00002807DB00F01F02400901239340024A76
:1007DC0042F82030704700BF00E100E00138B0F172
:1007EC00807F0AD2064B5860064AF02182F823100B
:1007FC000020986007221A6070470120704700BFE4
:10080C0010E000E000ED00E0F0B482B0002336E030
:10081C00042400E00024B4403C4302355B4E46F80F
:10082C0025405B4C2568D44304EA05064F6817F451
:10083C00803F01D042EA0506554D2E606D6804EAF2
:10084C0005064F6817F4003F01D042EA0506504DEB
:10085C006E60AD6804EA05064F6817F4801F01D07E
:10086C0042EA05064A4DAE60ED682C404E6816F41F
:10087C00001F01D042EA0504454AD46001330A68DE
:10088C0032FA03F47FD001249C402240F6D04D680C
:10089C00022D01D0122D10D1DE08083650F826C0DA
:1008AC0003F00705AF000F25BD402CEA050C0D69C0
:1008BC00BD4045EA0C0540F8265006685F0003254C
:1008CC00BD40ED4305EA060C4E6806F00306BE403B
:1008DC0046EA0C0606604E6806F1FF3CBCF1010FBF
:1008EC0003D9112E01D0122E10D1866805EA060C00
:1008FC00CE68BE4046EA0C068660466826EA0404CA
:10090C004E68C6F300169E4026434660C4682540D8
:10091C008C68BC402C43C4604C6814F0805FADD034
:10092C001C4C256A45F001052562246A04F001047B
:10093C000194019C9D08AE1C144C54F8267003F0D5
:10094C000304A6000F24B44027EA0407124CA0426B
:10095C003FF460AF04F58064A0420ED004F58064CF
:10096C00A0420CD004F58064A0420AD004F5806447
:10097C00A0423FF44DAF05244DE701244BE7022480
:10098C0049E7032447E702B0F0BC70470000014080
:10099C000004014000380240000002400369194283
:1009AC0001D1002070470120704712B90904816100
:1009BC00704781617047000008B5054B5B690342C5
:1009CC0000D108BD024B586101F0FEFCF9E700BFF5
:1009DC000004014082B0214B9B6813F0F00F2CD126
:1009EC001E4B5B6A13F0805F08D01D4B1B6803F431
:1009FC00C053B3F5C05F14D000211FE0174A536AEF
:100A0C0043F080535362536A03F080530193019B6C
:100A1C00134B1B6803F4C053516A21F0805151628F
:100A2C00E7E7B0F5404F01D0002107E00D4A13680D
:100A3C0043F004031360012100E00021094A13680C
:100A4C0023F001030B431360136803F001038B4283
:100A5C0002D0012002B070470020FBE700380240B2
:100A6C0000700040003C0240002800F06082F0B5AD
:100A7C0083B00446A04B9D6805F00C059E6806F4F7
:100A8C008036036813F0010F1DD0082D12D00C2DE9
:100A9C000ED06368012B35D0002B49D1964B1A68C8
:100AAC0022F480321A601A6822F480221A602EE036
:100ABC00002EEED0904B1B6813F4003F03D06368FC
:100ACC00002B00F03782236813F0020F69D0042D3D
:100ADC0055D00C2D51D0E368002B00F0AC80874B27
:100AEC0001221A60FFF70CFE0646834B1B6813F0BD
:100AFC00020F40F09780FFF703FE801B0228F4D909
:100B0C0003231EE27C4A136843F48033136063684A
:100B1C0023B3FFF7F5FD0746774B1B6813F4003F33
:100B2C00D1D1FFF7EDFDC01B6428F5D9032308E2F2
:100B3C00052B09D0704B1A6822F480321A601A689F
:100B4C0022F480221A60E2E76B4B1A6842F480228E
:100B5C001A601A6842F480321A60D8E7FFF7D0FDA9
:100B6C000746654B1B6813F4003FACD0FFF7C8FD7C
:100B7C00C01B6428F5D90323E3E1002EABD15E4BF7
:100B8C001B6813F0020F04D0E368012B01D0012382
:100B9C00D7E1594A536823F4F853216943EA0123F6
:100BAC005360236813F0100F00F08E80002D68D175
:100BBC00514B1B6813F4007F03D0A369002B00F08A
:100BCC00BB81206A4C4B5B6803F46043984244D968
:100BDC00FFF700FF002840F0B181474A536823F427
:100BEC006043216A0B435360536823F07F43E169F0
:100BFC0043EA01635360236A5B0B5A1C4FF40043B6
:100C0C0093403D4A9268C2F303123D498A5CD3403B
:100C1C003C4A13603C4B1868FFF730FD0346002834
:100C2C0052D08EE1344A536823F4F853216943EAD5
:100C3C0001235360B5E7314B00221A60FFF760FDCA
:100C4C0006462D4B1B6813F0020FAAD0FFF758FD78
:100C5C00801B0228F5D9032373E1274A536823F438
:100C6C00604318435060536823F07F43E16943EAC3
:100C7C0001635360206AFFF7ADFE0028BBD001234F
:100C8C005FE1A369002B45D0204B01221A60FFF7CE
:100C9C0037FD0646184B1B6813F4007F06D1FFF78F
:100CAC002FFD801B0228F5D903234AE1124A536811
:100CBC0023F46043216A0B435360536823F07F4352
:100CCC00E16943EA01635360236813F0080F45D0D0
:100CDC0063698BB30E4B01221A60FFF711FD0646B8
:100CEC00054B5B6B13F0020F38D1FFF709FD801B2E
:100CFC000228F5D9032324E10038024000004742C2
:100D0C00F02C0008080000200400002020004742BE
:100D1C00800647428E4B00221A60FFF7F1FC064614
:100D2C008C4B1B6813F4007FCED0FFF7E9FC801BC3
:100D3C000228F5D9032304E1874B00221A60FFF740
:100D4C00DFFC0646834B5B6B13F0020F06D0FFF7FC
:100D5C00D7FC801B0228F5D90323F2E0236813F09B
:100D6C00040F79D07B4B5B6A13F0805F1ED1794BFB
:100D7C005A6A42F080525A625B6A03F080530193C4
:100D8C00019B0126754B1B6813F4807F10D0A36860
:100D9C00012B21D0002B37D16E4B5A6B22F4807271
:100DAC005A635A6B22F480625A631AE00026E9E710
:100DBC006A4A136843F480731360FFF7A1FC07467B
:100DCC00664B1B6813F4807FE1D1FFF799FCC01BC5
:100DDC006428F5D90323B4E05E4A536B43F4807363
:100DEC005363A36833B3FFF78BFC0746594B5B6B1C
:100DFC0013F4007F2FD1FFF783FCC01B41F2883323
:100E0C009842F3D903239CE0052B09D0514B5A6B24
:100E1C0022F480725A635A6B22F480625A63E0E7C0
:100E2C004C4B5A6B42F480625A635A6B42F4807298
:100E3C005A63D6E7FFF764FC0746464B5B6B13F42B
:100E4C00007F08D0FFF75CFCC01B41F2883398424E
:100E5C00F3D9032375E0C6B9636A002B70D00C2D4F
:100E6C004CD0022B17D03E4B00221A60FFF748FCE7
:100E7C000446384B1B6813F0007F3DD0FFF740FC55
:100E8C00001B0228F5D903235BE0324A536A23F096
:100E9C0080535362E0E7324B00221A60FFF730FCBC
:100EAC0005462C4B1B6813F0007F06D0FFF728FC7F
:100EBC00401B0228F5D9032343E026498B6823F411
:100ECC007D03A26AE06A0243206B024313438B60EA
:100EDC00234B01221A60FFF713FC04461D4B1B68C1
:100EEC0013F0007F06D1FFF70BFC001B0228F5D98D
:100EFC00032326E0002324E0002322E0012B23D04F
:100F0C00144B9B6803F48031A26A914201D00123F7
:100F1C0017E003F47012E16A8A4201D0012310E059
:100F2C0003F44003226B934210D0012309E0012308
:100F3C0018467047012304E0012302E0012300E07E
:100F4C000023184603B0F0BD0123FAE70023F8E7AD
:100F5C0020004742003802408006474200700040A3
:100F6C0060004742174B986800F00C02082A26D004
:100F7C000C2A0CD0042A08D0124B5868C0F342300B
:100F8C00431C4FF40040984070470F487047C0F323
:100F9C0083420E498A5CC0F381500130094B9B6837
:100FAC0013F4803F05D00A4B03FB02F3B3FBF0F0C4
:100FBC007047054B03FB02F3B3FBF0F0704704489A
:100FCC00704700BF003802400024F400E42C0008F5
:100FDC0000127A00002800F0DC8070B504466F4ADD
:100FEC00126802F001028A4214D201290CD06B481B
:100FFC00026822F001020A430260026802F0010258
:10100C008A4207D0012070BD6448026842F0040295
:10101C000260ECE7226812F0020F06D0604882688A
:10102C0022F0F002A3681A4382600D46236813F085
:10103C00010F6CD06368022B0AD0032B2CD0012B30
:10104C0031D0574A126812F4007F07D10120DAE739
:10105C00534A126812F4003F00F09D8050498A6890
:10106C0022F0030213438B60FFF74AFB06466368CA
:10107C00022B1FD0032B2CD0012B39D0484B9B6853
:10108C0013F00C0F43D0FFF73BFB801B41F288336E
:10109C009842F3D90320B6E7414A126812F0007F58
:1010AC00DCD10120AFE73E4A126812F0020FD5D115
:1010BC000120A8E73A4B9B6803F00C03082B26D0C1
:1010CC00FFF71EFB801B41F288339842F2D90320B4
:1010DC0099E7334B9B6803F00C030C2B17D0FFF7ED
:1010EC000FFB801B41F288339842F2D903208AE728
:1010FC002B4B9B6803F00C03042B08D0FFF700FB71
:10110C00801B41F288339842F2D903207BE7234BB2
:10111C001B6803F00103AB4214D9012D0CD01F4AFC
:10112C00136823F001032B431360136803F00103CE
:10113C00AB4207D0012066E7184A136843F004035A
:10114C001360ECE7236813F0040F06D0144A93687D
:10115C0023F4E063E1680B439360236813F0080FFA
:10116C0007D00F4A936823F46053216943EAC10303
:10117C009360FFF7F7FE0A4B9B68C3F30313094A0E
:10118C00D35CD840084B1860084B1868FFF776FA08
:10119C0039E701207047012035E700BF003C0240D1
:1011AC0000380240F02C0008080000200400002049
:1011BC00014B1868704700BF0800002008B5FFF706
:1011CC00F7FF044B9B68C3F30223034AD35CD8405C
:1011DC0008BD00BF00380240002D000808B5FFF71D
:1011EC00E7FF044B9B68C3F3C223034AD35CD8408C
:1011FC0008BD00BF00380240002D0008F8B50546B8
:10120C000F4616461C462B689B6837EA03030CBF37
:10121C0001230023B34237D0B4F1FF3FF3D0FFF7E3
:10122C006FFA069BC01AA04201D2002CEBD12A689F
:10123C00536823F0E00353606B68B3F5827F0BD0E7
:10124C00AB6AB3F5005F14D0012385F8513000234D
:10125C0085F85030032018E0AB68B3F5004F02D08E
:10126C00B3F5806FECD12A68136823F04003136048
:10127C00E6E72A68136823F4005313602A6813689E
:10128C0043F400531360DFE70020F8BD10B582B0C3
:10129C0004464068B0F5827F08D094F85100C0B283
:1012AC00052813D00023184602B010BD00920B463F
:1012BC00002280212046FFF7A1FF03460028F2D030
:1012CC00636D43F0200363650323ECE700920B4648
:1012DC00002201212046FFF791FF03460028E2D0AF
:1012EC00636D43F0200363650323DCE710B582B024
:1012FC0004464068B0F5827F16D06068B0F5827FF6
:10130C002ED1A368B3F5806F1BD000920B46002240
:10131C0080212046FFF772FF034650B3636D43F004
:10132C0020036365032324E0A368B3F5004F02D0C8
:10133C00B3F5806FE1D12068036823F040030360AC
:10134C00DBE700920B46002201212046FFF756FFF7
:10135C00034670B1636D43F020036365032308E01B
:10136C0000920B46002201212046FFF747FF03465F
:10137C0010B9184602B010BD636D43F020036365CD
:10138C000323F6E7002833D010B50446002383620C
:10139C0090F851303BB3022384F851302268136823
:1013AC0023F0400313606368A2681343E26813439D
:1013BC002269134362691343A26902F40072134356
:1013CC00E2691343226A1343A16A22680B43136038
:1013DC00638B226803F004035360002060650123D3
:1013EC0084F8513010BD80F8503001F099FAD2E7F2
:1013FC00012070472DE9F04182B090F85040012C4B
:10140C0000F0C3801D46174688460446012380F829
:10141C005030FFF775F9064694F85130DBB2012BCA
:10142C0009D00220012384F85130002384F8503075
:10143C0002B0BDE8F081B8F1000F00F09880002FE9
:10144C0000F09780032384F8513000236365C4F8BF
:10145C003080A786E786A363A387E387636423644E
:10146C00A368B3F5004F1CD023681A6812F0400F24
:10147C0003D11A6842F040021A60E368B3F5006FBA
:10148C0015D063680BB1012F49D1226B23681278F8
:10149C001A73236B01332363E38E013B9BB2E38608
:1014AC003DE02268136843F480431360DCE7636813
:1014BC000BB1012F15D1226B23681288DA60236BD4
:1014CC0002332363E38E013B9BB2E38609E0FFF713
:1014DC0017F9801BA84202D3B5F1FF3F4BD1002D69
:1014EC004BD0E38E9BB2002B2CD023689A6812F061
:1014FC00020FECD0226B1288DA60236B0233236369
:10150C00E38E013B9BB2E386EBE7FFF7F9F8801B18
:10151C00A84202D3B5F1FF3F31D1002D31D0E38E7B
:10152C009BB27BB123689A6812F0020FEDD0226B4C
:10153C0012781A73236B01332363E38E013B9BB246
:10154C00E386ECE7324629462046FFF79FFE08B1BA
:10155C0020236365A36833B901932368DA68019289
:10156C009B680193019B636D6BB900205AE70120C6
:10157C0058E7012056E7032054E7032052E70320E5
:10158C0050E703204EE701204CE7022050E72DE9FD
:10159C00F04383B0DDF8288090F85040012C00F027
:1015AC000B811D4617460E460446012380F8503029
:1015BC00FFF7A6F8814694F85100C0B26368012881
:1015CC0015D0B3F5827F0AD00223012284F8512072
:1015DC00002284F85020184603B0BDE8F083A368BD
:1015EC00002B40F0DB80042801D00223EDE7002E15
:1015FC0000F0D680002F00F0D580002D00F0D480B4
:10160C0094F85130DBB2042B02D0052384F851300E
:10161C0000236365A763E587A5872663E586A58612
:10162C002364636423681A6812F0400F03D11A68AC
:10163C0042F040021A60E368B3F5006F10D06368A3
:10164C000BB1012D0AD1226B236812781A73236B0C
:10165C0001332363E38E013B9BB2E386012569E0F2
:10166C0063680BB1012D0AD1226B23681288DA60F2
:10167C00236B02332363E38E013B9BB2E38601258C
:10168C001BE023689A6812F0010F0DD0E28F92B222
:10169C0052B1DA68A36B1A80A36B0233A363E38F96
:1016AC00013B9BB2E3870125FFF72AF8A0EB090069
:1016BC00404502D3B8F1FF3F78D1E38E9BB21BB902
:1016CC00E38F9BB2002B52D023689A6812F0020F62
:1016DC00D7D0E28E92B2002AD3D0002DD1D0226B7B
:1016EC001288DA60236B02332363E38E013B9BB2D7
:1016FC00E3860025C5E723689A6812F0010F0DD028
:10170C00E28F92B252B1DA68A36B1A70A36B0133F9
:10171C00A363E38F013B9BB2E3870125FEF7F0FF48
:10172C00A0EB0900404502D3B8F1FF3F40D1B8F11E
:10173C00000F3FD0E38E9BB213B9E38F9BB2B3B1D2
:10174C0023689A6812F0020FD5D0E28E92B2002A6A
:10175C00D1D0002DCFD0226B12781A73236B0133AA
:10176C002363E38E013B9BB2E3860025C3E74A4625
:10177C0041462046FFF78AFD034618B120236365D6
:10178C00012322E7A268002A7FF41FAF019222688E
:10179C00D168019192680192019A16E7022314E72D
:1017AC00012312E7012310E701230EE703230CE7C3
:1017BC0003230AE7032308E702230CE72DE9F04192
:1017CC0082B004460F4690461D464368B3F5827FAF
:1017DC0019D094F85030012B00F09F80012384F82D
:1017EC005030FEF78DFF064694F85130DBB2012BDA
:1017FC0015D00220012384F85130002384F8503096
:10180C0002B0BDE8F0818368002BE2D1042380F89C
:10181C005130009513460A46FFF7B9FEF0E7002F4A
:10182C006DD0B8F1000F6CD0042384F85130002334
:10183C006365A763A4F83C80A4F83E802363A38669
:10184C00E38623646364A368B3F5004F0BD023686D
:10185C001A6812F0400F03D11A6842F040021A6065
:10186C00E36883B12CE02268136823F4804313608F
:10187C00EDE7FEF745FF801BA84202D3B5F1FF3F11
:10188C0041D1002D41D0E38F9BB2002B2BD023688C
:10189C009A6812F0010FECD0A26B1B7B1370A36B38
:1018AC000133A363E38F013B9BB2E387EBE7FEF7C6
:1018BC0027FF801BA84202D3B5F1FF3F27D145B3C8
:1018CC00E38F9BB27BB123689A6812F0010FEED0C4
:1018DC00DA68A36B1A80A36B0233A363E38F013B1B
:1018EC009BB2E387ECE7324629462046FFF7FEFC25
:1018FC0008B120236365636D6BB900207AE7012082
:10190C0078E7012076E7032074E7032072E70320D1
:10191C0070E703206EE701206CE7022070E70000FF
:10192C000368B0F1804F06D0184A904203D002F5FC
:10193C008062904203D123F070034A681343B0F1E4
:10194C00804F12D0114A90420FD002F58062904223
:10195C000BD002F58032904207D002F580629042A3
:10196C0003D002F58062904203D123F44073CA681D
:10197C00134323F080030A69134303608B68C3622B
:10198C000B68836201234361704700BF0004004071
:10199C0010B4036A046A24F001040462846924F01C
:1019AC00F00444EA021223F00A030B43826103623F
:1019BC0010BC704710B4036A23F0100303628469EF
:1019CC00036A24F4704444EA023223F0A00343EA8D
:1019DC0001138261036210BC7047836823F07003AB
:1019EC00194341F007018160704710B4846824F4F6
:1019FC007F4442EA03230B432343836010BC7047AC
:101A0C00A8B110B5044690F839305BB1022384F8C4
:101A1C003930211D2068FFF783FF012384F839300A
:101A2C00002010BD80F8383001F078F8EEE7012086
:101A3C007047022380F839300268936803F007037B
:101A4C00062B03D0136843F001031360012380F8C5
:101A5C0039300020704790F83830012B66D010B523
:101A6C000446012380F83830022380F839300268AC
:101A7C00936823F47F4323F0770393600B68402B28
:101A8C004AD013D9602B3DD01ED9702B28D0B3F57A
:101A9C00005F30D1CB684A6889680068FFF7A5FF02
:101AAC002268936843F48043936024E0102B06D0A3
:101ABC0004D9202B03D0302B01D01CE0DBB9194604
:101ACC002068FFF78AFF16E0502B14D1CA684968CA
:101ADC000068FFF75DFF50212068FFF77EFF0AE0EA
:101AEC00CB684A6889680068FFF77FFF22689368B3
:101AFC0043F077039360012384F83930002084F895
:101B0C00380010BDCA6849680068FFF753FF6021B0
:101B1C002068FFF762FFEEE7CA6849680068FFF7C4
:101B2C0037FF40212068FFF758FFE4E70220704799
:101B3C0090F83830012B1CD070B4012680F8386036
:101B4C00022380F8393002685568936825F07005D7
:101B5C000C682C4323F080054B682B4354600268BF
:101B6C00936080F83960002380F83830184670BCD8
:101B7C00704702207047000038B5044602681369AC
:101B8C0023F44053C1680B43136183680269134308
:101B9C0042691343C2691A430168CB6823F41643A4
:101BAC0023F00C031343CB600268536923F4407396
:101BBC0081690B435361C369B3F5004F23D00268AD
:101BCC00444B9A4265D0FFF7F9FA00EB800000EB2A
:101BDC00800063689B00B0FBF3F03F4DA5FB003227
:101BEC005109642202FB110213013233A5FB0323BA
:101BFC005B0903F0F00202EB011203F00F03216802
:101C0C0013448B6038BD0268324B9A4220D0FFF7E8
:101C1C00D5FA00EB800000EB800063685B00B0FB42
:101C2C00F3F02D4DA5FB00325109642202FB110289
:101C3C00D3003233A5FB03235B095A0002F4F8727C
:101C4C0002EB011203F00703216813448B60D9E700
:101C5C00FFF7C4FA00EB800000EB800063685B00C8
:101C6C00B0FBF3F01C4DA5FB00325109642202FBC2
:101C7C001102D3003233A5FB03235B095A0002F493
:101C8C00F87202EB011203F00703216813448B6016
:101C9C00B8E7FFF7A3FA00EB800000EB8000636865
:101CAC009B00B0FBF3F00C4DA5FB003251096422F4
:101CBC0002FB110213013233A5FB03235B0903F072
:101CCC00F00202EB011203F00F03216813448B6046
:101CDC0098E700BF003801401F85EB512DE9F0411A
:101CEC0005460F4616469846069C2B681B6837EA35
:101CFC0003030CBF01230023B3421DD1B4F1FF3FFA
:101D0C00F3D02CB1FEF7FCFCA0EB0800A042ECD900
:101D1C002A68D36823F4D073D3602A68536923F0FC
:101D2C0001035361202385F8393085F83A300023BC
:101D3C0085F83830032000E00020BDE8F08158B36E
:101D4C0010B5044690F839300BB3242384F839309D
:101D5C002268D36823F40053D3602046FFF70CFFAE
:101D6C002268136923F4904313612268536923F0AA
:101D7C002A0353612268D36843F40053D3600020D4
:101D8C00E063202384F8393084F83A3010BD80F8B1
:101D9C00383000F003FFD8E7012070472DE9F041FF
:101DAC0082B01E4690F83930DBB2202B55D1044658
:101DBC000D469046002955D0002A55D090F8383061
:101DCC00012B53D0012380F838300023C363212327
:101DDC0080F83930FEF794FC0746A4F82480A4F868
:101DEC00268010E000963B46002280212046FFF71B
:101DFC0075FF00283CD12B882268C3F3080353607D
:101E0C002369C3B90235E38C9BB2B3B1E38C013BBC
:101E1C009BB2E384A368B3F5805FE3D000963B46A6
:101E2C00002280212046FFF759FF18BB2A7823682F
:101E3C005A600135E7E70135E5E700963B4600229D
:101E4C0040212046FFF74AFF0346A8B9202284F818
:101E5C003920002284F8382000E00223184602B012
:101E6C00BDE8F0810123F9E70123F7E70223F5E749
:101E7C000323F3E70323F1E70323EFE7F0B589B07E
:101E8C00002403940494059406940794244BDA6973
:101E9C0042F00202DA61DA6902F002020192019A5E
:101EAC00DA6942F00102DA61DB6903F001030293A3
:101EBC00029B1C4E22464FF444613046FEF775FDE2
:101ECC00194F22464FF480713846FEF76EFD0423FD
:101EDC000393164B04930125059503A93046FEF791
:101EEC0093FC4FF44463039304950594069403A95F
:101EFC003046FEF789FC4FF48073039304950594E8
:101F0C00069403A93846FEF77FFC2246214608209A
:101F1C00FEF722FC0820FEF753FC09B0F0BD00BF11
:101F2C000038024000040240000002400000211072
:101F3C0008B506494FF480730B6000234B600123F6
:101F4C008B600348FEF760FC08BD00BF2C0000202E
:101F5C000000024008B506494FF480730B60012362
:101F6C004B6000238B60CB600248FEF74DFC08BD34
:101F7C002C0000200000024082B0C0000190019BA8
:101F8C005A1E0192002BFAD102B0704710B5FFF720
:101F9C00E1FF164C00224FF480712046FEF705FD40
:101FAC004FF4F070FFF7E8FFFFF7C2FF5020FFF788
:101FBC00E3FF4FF480712046FEF7F0FC88B100245B
:101FCC004FF4C870FFF7D8FF4FF480710748FEF745
:101FDC00E5FC012814BF002004F0010018B9012011
:101FEC0010BD0124ECE70020FAE700BF000002401E
:101FFC0038B5054600240BE000224FF480711148DF
:10200C00FEF7D3FC3C20FFF7B7FFFFF791FF01343D
:10201C00072C15DCFFF79EFF45FA04F313F0010FB4
:10202C00EAD000224FF480710648FEF7BEFC012076
:10203C00FFF7A2FFFFF77CFF3C20FFF79DFFE6E7D1
:10204C0038BD00BF0000024070B5FFF771FF0024DF
:10205C00264603E03C20FFF78FFF0134072C19DCE8
:10206C00FFF778FF0C4D00224FF480712846FEF7E5
:10207C009CFC0220FFF780FFFFF75AFF4FF48071A2
:10208C002846FEF78BFC0028E4D00123A3401E4316
:10209C00F6B2DFE7304670BD0000024010B5FFF726
:1020AC0075FFCC20FFF7A4FF4420FFF7A1FFFFF73B
:1020BC006DFFCC20FFF79CFFBE20FFF799FFFFF7C9
:1020CC00C3FF0446FFF7C0FF44EA002080B2FEF7CE
:1020DC0005F94FF07651FEF759F910BD30B593B0B4
:1020EC003422002105A800F0DBFD002400940194AB
:1020FC00029403940494124A136823F4C05343F4D7
:10210C0000631360022305930125089510220992A0
:10211C000E930F944FF4002310934FF4000311937C
:10212C0005A8FEF7A1FC0F2300930323019302944F
:10213C000394049429466846FEF74CFF13B030BD57
:10214C00007000407047000070B582B08DF806102A
:10215C0040F0200002AC04F8010D0F4D00224FF4AA
:10216C0000612846FEF721FC0C4E4FF47A730122D5
:10217C0021463046FFF73EF94FF47A7301220DF1F8
:10218C0006013046FFF736F901224FF4006128466C
:10219C00FEF70BFC02B070BD0004024044000020AE
:1021AC0010B5074C01224FF400612046FEF7FDFBF1
:1021BC0000224FF480612046FEF7F7FB10BD00BFF4
:1021CC000004024030B583B002AC04F8010D0A4D96
:1021DC0000224FF400612846FEF7E7FBC8230122DA
:1021EC0021460648FFF706F901224FF40061284604
:1021FC00FEF7DBFB03B030BD0004024044000020BE
:10220C0010B584B0FF238DF80E300D4C00224FF426
:10221C0000612046FEF7C9FB6423009301230DF1F6
:10222C000F020DF10E010748FFF7B1F901224FF42F
:10223C0000612046FEF7B9FB9DF80F0004B010BDFD
:10224C000004024044000020F0B587B00C4606ADF7
:10225C0005F8110D104E00224FF400613046FEF7C8
:10226C00A4FB0E4F6423012229463846FFF7C2F81F
:10227C006423224602A93846FFF7A0FA01224FF444
:10228C0000613046FEF791FB013C06AB1C4414F890
:10229C00100C07B0F0BD00BF000402404400002049
:1022AC0070B504460D4616460121FFF7CDFF46B921
:1022BC000121A94020EA0101C9B22046FFF744FFE1
:1022CC0070BD0121A9400143C9B2F6E710B50F4C0E
:1022DC0000224FF480612046FEF767FBE220FFF7F7
:1022EC0071FF70210720FFF72FFF012211460020FC
:1022FC00FFF7D6FF012200210846FFF7D1FF01228C
:10230C004FF480612046FEF750FB10BD00040240E4
:10231C0008B5FFF745FF5A210520FFF715FF0621E9
:10232C000846FFF711FF08210020FFF70DFF3F21A2
:10233C000120FFF709FF3F210220FFF705FF4F2186
:10234C000420FFF701FF20211120FFF7FDFE2021C3
:10235C001220FFF7F9FE00211C20FFF7F5FEE2200A
:10236C00FFF730FFE120FFF72DFF70210720FFF76B
:10237C00EBFEFFF7ABFF012008BD08B5702107206D
:10238C00FFF7E2FE012211460020FFF789FF002231
:10239C0011461046FFF784FF08BD08B50121172030
:1023AC00FFF752FF00F0010008BD08B5FFF728FF4A
:1023BC0010F0400F01D0012008BDFFF7EEFFB0FA7E
:1023CC0080F04009F8E70000042800D0704708B5F9
:1023DC00FFF7EBFF10B1024B00221A7008BD00BFD3
:1023EC0040000020F0B583B00746214C00224FF48A
:1023FC0080612046FEF7D9FAFFF7BFFF02ADE1235B
:10240C0005F8013D00224FF400612046FEF7CDFA9D
:10241C00184E6423012229463046FEF7EBFF0122B9
:10242C004FF400612046FEF7C0FA00224FF4006121
:10243C002046FEF7BAFAA0238DF807306423012258
:10244C0029463046FEF7D6FF642320223946304613
:10245C00FEF7D0FF01224FF400612046FEF7A5FAEB
:10246C0001224FF480612046FEF79FFA03B0F0BDC5
:10247C000004024044000020F0B583B0074602ACD3
:10248C00612304F8013D104D00224FF400612846F1
:10249C00FEF78BFA0D4E6423012221463046FEF7DF
:1024AC00A9FF6423202239463046FFF787F9012221
:1024BC004FF400612846FEF778FA40210720FFF719
:1024CC0043FE03B0F0BD00BF0004024044000020F6
:1024DC0010B50C460121FFF7B7FE204110F0010F9B
:1024EC0001D0012010BD0020FCE7000070B582B0C7
:1024FC000E461546203002AC04F8010D00224FF4B4
:10250C0000611048FEF751FA4FF47A73012221460C
:10251C000D48FEF76FFF00240AE04FF47A73012296
:10252C0031190948FEF766FF0A20FEF7EFF801346F
:10253C00A542F2DC01224FF400610248FEF735FAA5
:10254C0002B070BD000402404400002008B5FFF743
:10255C0057FE10F0200F04D110F0100F03D0002004
:10256C0000E0012008BDFF20FCE7000038B505465F
:10257C00FEF77CF8074C4FF47A7382B2294620465A
:10258C00FFF70CFC4FF47A73022203492046FFF745
:10259C0005FC38BD14010020082D000808B50121E8
:1025AC000520FFF751FE5A285AD001210620FFF7CB
:1025BC004BFE062858D001210020FFF745FE0B28C2
:1025CC0056D001210846FFF73FFE3F2854D0012189
:1025DC000420FFF739FE4F2852D001211120FFF7BC
:1025EC0033FE202850D001211020FFF72DFEE728C4
:1025FC004ED002211020FFF727FEE7284CD00321F4
:10260C001020FFF721FEE7284AD004211020FFF705
:10261C001BFEE72848D005211020FFF715FEE72800
:10262C0046D001210B20FFF70FFE7E2844D002215B
:10263C000B20FFF709FE7E2842D003210B20FFF769
:10264C0003FE7E2840D004210B20FFF7FDFD7E28E1
:10265C003ED005210B20FFF7F7FD7E283CD008BDAE
:10266C001F48FFF783FFA0E71E48FFF77FFFA2E795
:10267C001D48FFF77BFFA4E71C48FFF777FFA6E791
:10268C001B48FFF773FFA8E71A48FFF76FFFAAE78D
:10269C001948FFF76BFFACE71848FFF767FFAEE789
:1026AC001748FFF763FFB0E71648FFF75FFFB2E785
:1026BC001548FFF75BFFB4E71448FFF757FFB6E781
:1026CC001348FFF753FFB8E71248FFF74FFFBAE77D
:1026DC001148FFF74BFFBCE71048FFF747FFBEE779
:1026EC000C2D0008282D0008442D0008602D000832
:1026FC007C2D00089C2D0008B82D0008D42D000856
:10270C00F02D00080C2E0008282E0008442E00087E
:10271C00642E0008842E0008A42E0008C42E000885
:10272C0030B595B0634B93E8030012908DF84C10C4
:10273C00083393E8030010908DF84410FDF7C4FFA4
:10274C00FFF7CCFCFFF79AFB00F0CAF800F074F925
:10275C0000F0AAF900F008FA5748FFF76AF9574851
:10276C00FFF767F90820FEF72BF8FFF7D1FDFFF70D
:10277C0015FF012205210020FFF792FD0122042103
:10278C000020FFF78DFD052212A90A20FFF7AEFEEF
:10279C00052212A91020FFF7A9FE052210A90B2073
:1027AC00FFF7A4FE464B01221A7052E0454D012260
:1027BC0040212846FEF7F9F80A20FDF7A7FF002272
:1027CC0040212846FEF7F1F80A20FDF79FFF01345F
:1027DC00E4B23FE008A8FFF74FFE012206210720D4
:1027EC00FFF75EFD00211720FFF772FE0028F1D0E5
:1027FC009DF82030012B04D09DF820302BB1002304
:10280C000DE03148FFF7B2FEF6E73048FFF7AEFEB9
:10281C00F5E714AA1A44002102F8301C01331F2BCF
:10282C00F7DD2DE02A48FFF7A1FE02E02948FFF76B
:10283C009DFE234B01221A701F4B1B6800225A620B
:10284C000120FDF763FF1C4B1B685B6AB3F57A7FB5
:10285C0028D80024002CA9D020220021684600F0A2
:10286C001FFAFFF71BFCFDF7E1FE8DF80000144B7F
:10287C001B78DBB2012BE3D0002BABD0022BE8D1C1
:10288C006846FFF7AFFDFFF761FE0446FF28FAD05C
:10289C00FFF71CFD012CC5D0002CC7D10E48FFF74B
:1028AC0065FEC6E70D48FFF761FE034B1B6800226F
:1028BC005A62CEE7D42C0008D80000209C000020DF
:1028CC004000002000040240E42E00080C2F0008F9
:1028DC003C2F0008782F0008582F0008842F000880
:1028EC0008B50D480D4B03604FF482734360002311
:1028FC008360C360036143614FF400728261C36102
:10290C000362436283620A23C362FEF73BFD00B994
:10291C0008BDFFF717FCFBE7440000200030014026
:10292C0000B589B000230393049305930693079392
:10293C000268134B9A4202D009B05DF804FB03F510
:10294C0084331A6A42F480521A621A6A02F4805270
:10295C000192019ADA6942F00202DA61DB6903F052
:10296C0002030293029B3823039302230493032351
:10297C0006930523079303A90248FDF745FFDBE700
:10298C00003001400004024084B00F4B5A6A42F000
:10299C0000425A625A6A02F000420192019A1A6A83
:1029AC0042F001021A621A6A02F001020292029AC1
:1029BC005A6A42F080525A625B6A03F08053039366
:1029CC00039B04B0704700BF003802407047FEE71D
:1029DC00FEE7FEE7FEE770477047704708B5FDF766
:1029EC0083FE08BD08B50420FDF7E6FF08BD000016
:1029FC000E4B1A6842F480721A6099680C4A0A40AD
:102A0C009A601A6822F0885222F001121A601A6831
:102A1C0022F480221A609A6822F47D029A600022C5
:102A2C00DA60044B4FF000629A6070470038024045
:102A3C000CC0FF8800ED00E000B587B000230293C6
:102A4C000393049305930093019316484FF080422F
:102A5C0002604FF47A52426083604EF66022C2608C
:102A6C0003614361FEF7CCFF98B906A94FF480537C
:102A7C0041F8103D0B48FEF7EEFF68B900230093B8
:102A8C00019369460748FFF753F840B907B05DF862
:102A9C0004FBFFF757FBE8E7FFF754FBEEE7FFF704
:102AAC0051FBF3E7D800002000B587B00023029358
:102ABC00039304930593009301931648164A0260FE
:102ACC004FF47A52426083604EF66022C26003611A
:102ADC004361FEF795FF98B906A94FF4805341F86E
:102AEC00103D0C48FEF7B7FF68B900230093019323
:102AFC0069460848FFF71CF840B907B05DF804FBBD
:102B0C00FFF720FBE8E7FFF71DFBEEE7FFF71AFBEB
:102B1C00F3E700BF9C0000200004004082B0036873
:102B2C00B3F1804F04D00E4A93420DD002B07047DF
:102B3C0003F50E335A6A42F001025A625B6A03F0E3
:102B4C0001030093009BF1E7064B5A6A42F0020224
:102B5C005A625B6A03F002030193019BE6E700BF34
:102B6C00000400400038024008B50A480A4B0360D4
:102B7C004FF4E133436000238360C36003610C2294
:102B8C0042618361C361FFF7DAF800B908BDFFF752
:102B9C00D9FAFBE7140100200038014000B589B0D8
:102BAC000023039304930593069307930268154B34
:102BBC009A4202D009B05DF804FB03F580331A6A1F
:102BCC0042F480421A621A6A02F480420192019A1B
:102BDC00DA6942F00102DA61DB6903F00103029366
:102BEC00029B4FF4C06303930223049301230593C8
:102BFC00032306930723079303A90348FDF704FE59
:102C0C00D8E700BF0038014000000240002103E07B
:102C1C000B4B5B58435004310A480B4B42189A42F9
:102C2C00F6D30A4A02E0002342F8043B084B9A42CE
:102C3C00F9D3FFF7DDFE00F00FF8FFF771FD7047D9
:102C4C00B02F0008000000200C0000200C00002019
:102C5C0054010020FEE7000070B500250C4E0D4C11
:102C6C00A41BA410A54209D100F022F800250A4E9D
:102C7C000A4CA41BA410A54205D170BD56F82530F2
:102C8C0098470135EEE756F8253098470135F2E7BD
:102C9C00A82F0008A82F0008A82F0008AC2F0008A8
:102CAC0003460244934200D1704703F8011BF9E735
:102CBC00F8B500BFF8BC08BC9E467047F8B500BF1D
:082CCC00F8BC08BC9E467047ED
:102CD400E7E7E7E7E70000007E7E7E7E7E000000F7
:102CE400030406080C101820300000000000000047
:102CF40000000000010203040607080900000000A8
:102D0400010203040D0A0000312E52465F4348209D
:102D1400706F707261776E6120776172746F736324
:102D240000000000322E52465F5345545550207027
:102D34006F707261776E6120776172746F73630074
:102D4400332E434F4E46494720706F707261776E41
:102D54006120776172746F7363000000342E454EF6
:102D64005F414120706F707261776E61207761728C
:102D7400746F736300000000352E53455455505F43
:102D84005245545220706F707261776E6120776182
:102D940072746F7363000000362E52585F50575F91
:102DA400503020706F707261776E61207761727439
:102DB4006F73630054585F414444525B305D20702C
:102DC4006F707261776E6120776172746F736300E4
:102DD40054585F414444525B315D20706F7072619E
:102DE400776E6120776172746F73630054585F412A
:102DF4004444525B325D20706F707261776E612063
:102E0400776172746F73630054585F414444525B3A
:102E1400335D20706F707261776E612077617274B8
:102E24006F73630054585F414444525B345D2070B7
:102E34006F707261776E6120776172746F73630073
:102E440052585F414444525F50315B305D20706F93
:102E5400707261776E6120776172746F73630000C2
:102E640052585F414444525F50315B315D20706F72
:102E7400707261776E6120776172746F73630000A2
:102E840052585F414444525F50315B325D20706F51
:102E9400707261776E6120776172746F7363000082
:102EA40052585F414444525F50315B335D20706F30
:102EB400707261776E6120776172746F7363000062
:102EC40052585F414444525F50315B345D20706F0F
:102ED400707261776E6120776172746F7363000042
:102EE400536C6176652073656E64732074656D70D0
:102EF4006572617475726520737563636573736657
:102F0400756C6C790A0D0000536C617665207365ED
:102F14006E6473207468652074656D706572617485
:102F240075726520756E7375636365737366756C0E
:102F34006C790A0D0000000041434B2C204D617355
:102F44007465722072656365697665642064617472
:102F5400610A0D004E4F41434B2C204C6F7374207B
:102F640041434B2066726F6D204D61737465720A24
:102F74000D00000053454E44494E470A0D00000021
:102F84004E6F20636F6D6D616E6420666F72206D8D
:102F94006F7265207468616E2031730A0D00000041
:042FA40025640000A0
:042FA80061010008BB
:042FAC003D010008DB
:0C2FB000010000001000000068FF1F007E
:0400000508002C19AA
:00000001FF
